{
  "contractName": "StakeU",
  "abi": [
    {
      "anonymous": false,
      "inputs": [
        {
          "indexed": true,
          "internalType": "address",
          "name": "previousOwner",
          "type": "address"
        },
        {
          "indexed": true,
          "internalType": "address",
          "name": "newOwner",
          "type": "address"
        }
      ],
      "name": "OwnershipTransferred",
      "type": "event"
    },
    {
      "anonymous": false,
      "inputs": [
        {
          "indexed": false,
          "internalType": "uint256",
          "name": "startedAt",
          "type": "uint256"
        }
      ],
      "name": "PoolStarted",
      "type": "event"
    },
    {
      "anonymous": false,
      "inputs": [
        {
          "indexed": false,
          "internalType": "uint256",
          "name": "tokenAmount",
          "type": "uint256"
        }
      ],
      "name": "Recovered",
      "type": "event"
    },
    {
      "anonymous": false,
      "inputs": [
        {
          "indexed": false,
          "internalType": "uint256",
          "name": "reward",
          "type": "uint256"
        }
      ],
      "name": "RewardAdded",
      "type": "event"
    },
    {
      "anonymous": false,
      "inputs": [
        {
          "indexed": true,
          "internalType": "address",
          "name": "user",
          "type": "address"
        },
        {
          "indexed": false,
          "internalType": "uint256",
          "name": "reward",
          "type": "uint256"
        }
      ],
      "name": "RewardPaid",
      "type": "event"
    },
    {
      "anonymous": false,
      "inputs": [
        {
          "indexed": true,
          "internalType": "address",
          "name": "user",
          "type": "address"
        },
        {
          "indexed": false,
          "internalType": "uint256",
          "name": "amount",
          "type": "uint256"
        }
      ],
      "name": "Staked",
      "type": "event"
    },
    {
      "anonymous": false,
      "inputs": [
        {
          "indexed": true,
          "internalType": "address",
          "name": "user",
          "type": "address"
        },
        {
          "indexed": false,
          "internalType": "uint256",
          "name": "amount",
          "type": "uint256"
        }
      ],
      "name": "Withdrawn",
      "type": "event"
    },
    {
      "inputs": [
        {
          "internalType": "address",
          "name": "account",
          "type": "address"
        }
      ],
      "name": "balanceOf",
      "outputs": [
        {
          "internalType": "uint256",
          "name": "",
          "type": "uint256"
        }
      ],
      "stateMutability": "view",
      "type": "function"
    },
    {
      "inputs": [],
      "name": "duration",
      "outputs": [
        {
          "internalType": "uint256",
          "name": "",
          "type": "uint256"
        }
      ],
      "stateMutability": "view",
      "type": "function"
    },
    {
      "inputs": [],
      "name": "initReward",
      "outputs": [
        {
          "internalType": "uint256",
          "name": "",
          "type": "uint256"
        }
      ],
      "stateMutability": "view",
      "type": "function"
    },
    {
      "inputs": [],
      "name": "lastUpdateTime",
      "outputs": [
        {
          "internalType": "uint256",
          "name": "",
          "type": "uint256"
        }
      ],
      "stateMutability": "view",
      "type": "function"
    },
    {
      "inputs": [],
      "name": "maxReward",
      "outputs": [
        {
          "internalType": "uint256",
          "name": "",
          "type": "uint256"
        }
      ],
      "stateMutability": "view",
      "type": "function"
    },
    {
      "inputs": [],
      "name": "maxUint",
      "outputs": [
        {
          "internalType": "uint256",
          "name": "",
          "type": "uint256"
        }
      ],
      "stateMutability": "view",
      "type": "function"
    },
    {
      "inputs": [],
      "name": "owner",
      "outputs": [
        {
          "internalType": "address",
          "name": "",
          "type": "address"
        }
      ],
      "stateMutability": "view",
      "type": "function"
    },
    {
      "inputs": [],
      "name": "periodFinish",
      "outputs": [
        {
          "internalType": "uint256",
          "name": "",
          "type": "uint256"
        }
      ],
      "stateMutability": "view",
      "type": "function"
    },
    {
      "inputs": [],
      "name": "poolEnabled",
      "outputs": [
        {
          "internalType": "bool",
          "name": "",
          "type": "bool"
        }
      ],
      "stateMutability": "view",
      "type": "function"
    },
    {
      "inputs": [],
      "name": "renounceOwnership",
      "outputs": [],
      "stateMutability": "nonpayable",
      "type": "function"
    },
    {
      "inputs": [],
      "name": "rewardDistributed",
      "outputs": [
        {
          "internalType": "uint256",
          "name": "",
          "type": "uint256"
        }
      ],
      "stateMutability": "view",
      "type": "function"
    },
    {
      "inputs": [],
      "name": "rewardPerTokenStored",
      "outputs": [
        {
          "internalType": "uint256",
          "name": "",
          "type": "uint256"
        }
      ],
      "stateMutability": "view",
      "type": "function"
    },
    {
      "inputs": [],
      "name": "rewardRate",
      "outputs": [
        {
          "internalType": "uint256",
          "name": "",
          "type": "uint256"
        }
      ],
      "stateMutability": "view",
      "type": "function"
    },
    {
      "inputs": [],
      "name": "rewardToken",
      "outputs": [
        {
          "internalType": "contract IERC20",
          "name": "",
          "type": "address"
        }
      ],
      "stateMutability": "view",
      "type": "function"
    },
    {
      "inputs": [
        {
          "internalType": "address",
          "name": "",
          "type": "address"
        }
      ],
      "name": "rewards",
      "outputs": [
        {
          "internalType": "uint256",
          "name": "",
          "type": "uint256"
        }
      ],
      "stateMutability": "view",
      "type": "function"
    },
    {
      "inputs": [],
      "name": "stakeToken",
      "outputs": [
        {
          "internalType": "address",
          "name": "",
          "type": "address"
        }
      ],
      "stateMutability": "view",
      "type": "function"
    },
    {
      "inputs": [],
      "name": "startTime",
      "outputs": [
        {
          "internalType": "uint256",
          "name": "",
          "type": "uint256"
        }
      ],
      "stateMutability": "view",
      "type": "function"
    },
    {
      "inputs": [],
      "name": "tokenReward",
      "outputs": [
        {
          "internalType": "address",
          "name": "",
          "type": "address"
        }
      ],
      "stateMutability": "view",
      "type": "function"
    },
    {
      "inputs": [],
      "name": "totalSupply",
      "outputs": [
        {
          "internalType": "uint256",
          "name": "",
          "type": "uint256"
        }
      ],
      "stateMutability": "view",
      "type": "function"
    },
    {
      "inputs": [
        {
          "internalType": "address",
          "name": "newOwner",
          "type": "address"
        }
      ],
      "name": "transferOwnership",
      "outputs": [],
      "stateMutability": "nonpayable",
      "type": "function"
    },
    {
      "inputs": [
        {
          "internalType": "address",
          "name": "",
          "type": "address"
        }
      ],
      "name": "userRewardPerTokenPaid",
      "outputs": [
        {
          "internalType": "uint256",
          "name": "",
          "type": "uint256"
        }
      ],
      "stateMutability": "view",
      "type": "function"
    },
    {
      "inputs": [],
      "name": "y",
      "outputs": [
        {
          "internalType": "contract IERC20",
          "name": "",
          "type": "address"
        }
      ],
      "stateMutability": "view",
      "type": "function"
    },
    {
      "inputs": [
        {
          "internalType": "address",
          "name": "rewardToken_",
          "type": "address"
        },
        {
          "internalType": "address",
          "name": "pairToken_",
          "type": "address"
        },
        {
          "internalType": "bool",
          "name": "isUniPair",
          "type": "bool"
        },
        {
          "internalType": "uint256",
          "name": "duration_",
          "type": "uint256"
        }
      ],
      "name": "initialize",
      "outputs": [],
      "stateMutability": "nonpayable",
      "type": "function"
    },
    {
      "inputs": [],
      "name": "startPool",
      "outputs": [],
      "stateMutability": "nonpayable",
      "type": "function"
    },
    {
      "inputs": [],
      "name": "contractAddress",
      "outputs": [
        {
          "internalType": "address",
          "name": "",
          "type": "address"
        }
      ],
      "stateMutability": "view",
      "type": "function"
    },
    {
      "inputs": [],
      "name": "lastTimeRewardApplicable",
      "outputs": [
        {
          "internalType": "uint256",
          "name": "",
          "type": "uint256"
        }
      ],
      "stateMutability": "view",
      "type": "function"
    },
    {
      "inputs": [],
      "name": "rewardPerToken",
      "outputs": [
        {
          "internalType": "uint256",
          "name": "",
          "type": "uint256"
        }
      ],
      "stateMutability": "view",
      "type": "function"
    },
    {
      "inputs": [
        {
          "internalType": "address",
          "name": "account",
          "type": "address"
        }
      ],
      "name": "earned",
      "outputs": [
        {
          "internalType": "uint256",
          "name": "",
          "type": "uint256"
        }
      ],
      "stateMutability": "view",
      "type": "function"
    },
    {
      "inputs": [
        {
          "internalType": "uint256",
          "name": "amount",
          "type": "uint256"
        }
      ],
      "name": "stake",
      "outputs": [],
      "stateMutability": "nonpayable",
      "type": "function"
    },
    {
      "inputs": [
        {
          "internalType": "uint256",
          "name": "amount",
          "type": "uint256"
        }
      ],
      "name": "withdraw",
      "outputs": [],
      "stateMutability": "nonpayable",
      "type": "function"
    },
    {
      "inputs": [],
      "name": "exit",
      "outputs": [],
      "stateMutability": "nonpayable",
      "type": "function"
    },
    {
      "inputs": [],
      "name": "getReward",
      "outputs": [],
      "stateMutability": "nonpayable",
      "type": "function"
    },
    {
      "inputs": [],
      "name": "updatePeriodFinish",
      "outputs": [
        {
          "internalType": "uint256",
          "name": "",
          "type": "uint256"
        }
      ],
      "stateMutability": "nonpayable",
      "type": "function"
    },
    {
      "inputs": [],
      "name": "recoverERC20",
      "outputs": [],
      "stateMutability": "nonpayable",
      "type": "function"
    }
  ],
  "bytecode": "0x60806040527fffffffffffffffffffffffffffffffffffffffffffffffffffffffffffffffff60435560006100386100e360201b60201c565b9050806000806101000a81548173ffffffffffffffffffffffffffffffffffffffff021916908373ffffffffffffffffffffffffffffffffffffffff1602179055508073ffffffffffffffffffffffffffffffffffffffff16600073ffffffffffffffffffffffffffffffffffffffff167f8be0079c531659141344cd1fd0a4f28419497f9722a3daafe3b4186f6b6457e060405160405180910390a35060016004819055506100eb565b600033905090565b612e9f806100fa6000396000f3fe608060405234801561001057600080fd5b50600436106102055760003560e01c80638b8763471161011a578063df136d65116100ad578063effb95231161007c578063effb9523146106dc578063f2fde38b14610756578063f6b4dfb41461079a578063f7c618c1146107e4578063fa08c9081461082e57610205565b8063df136d6514610678578063e9483ac014610696578063e9fad8ee146106b4578063ebe2b12b146106be57610205565b8063a694fc3a116100e9578063a694fc3a146105ec578063be46aec61461061a578063c8f33c911461063c578063cd3daf9d1461065a57610205565b80638b876347146104e25780638da5cb5b1461053a5780639bfffad714610584578063a56dfe4a146105a257610205565b806351ed6a301161019d578063715018a61161016c578063715018a61461047457806378e979251461047e5780637b0a47ee1461049c5780637c0f1ee7146104ba57806380faa57d146104c457610205565b806351ed6a301461036a57806366a78e6c146103b45780636e66f6e9146103d257806370a082311461041c57610205565b806318160ddd116101d957806318160ddd146102f657806328184219146103145780632e1a7d4d146103325780633d18b9121461036057610205565b80628cc2621461020a5780630700037d146102625780630fb5a6b4146102ba57806316a0c5b5146102d8575b600080fd5b61024c6004803603602081101561022057600080fd5b81019080803573ffffffffffffffffffffffffffffffffffffffff169060200190929190505050610838565b6040518082815260200191505060405180910390f35b6102a46004803603602081101561027857600080fd5b81019080803573ffffffffffffffffffffffffffffffffffffffff16906020019092919050505061091f565b6040518082815260200191505060405180910390f35b6102c2610937565b6040518082815260200191505060405180910390f35b6102e061093d565b6040518082815260200191505060405180910390f35b6102fe610943565b6040518082815260200191505060405180910390f35b61031c61094d565b6040518082815260200191505060405180910390f35b61035e6004803603602081101561034857600080fd5b8101908080359060200190929190505050610aed565b005b610368610ddc565b005b6103726111e0565b604051808273ffffffffffffffffffffffffffffffffffffffff1673ffffffffffffffffffffffffffffffffffffffff16815260200191505060405180910390f35b6103bc611206565b6040518082815260200191505060405180910390f35b6103da61120c565b604051808273ffffffffffffffffffffffffffffffffffffffff1673ffffffffffffffffffffffffffffffffffffffff16815260200191505060405180910390f35b61045e6004803603602081101561043257600080fd5b81019080803573ffffffffffffffffffffffffffffffffffffffff169060200190929190505050611232565b6040518082815260200191505060405180910390f35b61047c61127b565b005b6104866113e9565b6040518082815260200191505060405180910390f35b6104a46113ef565b6040518082815260200191505060405180910390f35b6104c26113f5565b005b6104cc611526565b6040518082815260200191505060405180910390f35b610524600480360360208110156104f857600080fd5b81019080803573ffffffffffffffffffffffffffffffffffffffff169060200190929190505050611539565b6040518082815260200191505060405180910390f35b610542611551565b604051808273ffffffffffffffffffffffffffffffffffffffff1673ffffffffffffffffffffffffffffffffffffffff16815260200191505060405180910390f35b61058c61157a565b6040518082815260200191505060405180910390f35b6105aa611580565b604051808273ffffffffffffffffffffffffffffffffffffffff1673ffffffffffffffffffffffffffffffffffffffff16815260200191505060405180910390f35b6106186004803603602081101561060257600080fd5b81019080803590602001909291905050506115a6565b005b6106226119a9565b604051808215151515815260200191505060405180910390f35b6106446119bc565b6040518082815260200191505060405180910390f35b6106626119c2565b6040518082815260200191505060405180910390f35b610680611a5a565b6040518082815260200191505060405180910390f35b61069e611a60565b6040518082815260200191505060405180910390f35b6106bc611a66565b005b6106c6611a81565b6040518082815260200191505060405180910390f35b610754600480360360808110156106f257600080fd5b81019080803573ffffffffffffffffffffffffffffffffffffffff169060200190929190803573ffffffffffffffffffffffffffffffffffffffff16906020019092919080351515906020019092919080359060200190929190505050611a87565b005b6107986004803603602081101561076c57600080fd5b81019080803573ffffffffffffffffffffffffffffffffffffffff169060200190929190505050611d5f565b005b6107a2611f52565b604051808273ffffffffffffffffffffffffffffffffffffffff1673ffffffffffffffffffffffffffffffffffffffff16815260200191505060405180910390f35b6107ec611f5a565b604051808273ffffffffffffffffffffffffffffffffffffffff1673ffffffffffffffffffffffffffffffffffffffff16815260200191505060405180910390f35b610836611f80565b005b6000610918604760008473ffffffffffffffffffffffffffffffffffffffff1673ffffffffffffffffffffffffffffffffffffffff1681526020019081526020016000205461090a670de0b6b3a76400006108fc6108e5604660008973ffffffffffffffffffffffffffffffffffffffff1673ffffffffffffffffffffffffffffffffffffffff168152602001908152602001600020546108d76119c2565b61209490919063ffffffff16565b6108ee88611232565b61211790919063ffffffff16565b61219d90919063ffffffff16565b61222690919063ffffffff16565b9050919050565b60476020528060005260406000206000915090505481565b60395481565b60435481565b6000600254905090565b6000806109586119c2565b604181905550610966611526565b604081905550600073ffffffffffffffffffffffffffffffffffffffff168173ffffffffffffffffffffffffffffffffffffffff1614610a33576109a981610838565b604760008373ffffffffffffffffffffffffffffffffffffffff1673ffffffffffffffffffffffffffffffffffffffff16815260200190815260200160002081905550604154604660008373ffffffffffffffffffffffffffffffffffffffff1673ffffffffffffffffffffffffffffffffffffffff168152602001908152602001600020819055505b603e544210610ae457610a656064610a576032603b5461211790919063ffffffff16565b61219d90919063ffffffff16565b603b81905550610a82603954603b5461219d90919063ffffffff16565b603f8190555042604081905550610aa46039544261222690919063ffffffff16565b603e819055507fde88a922e0d3b88b24e9623efeb464919c6bf9f66857a65e2bfcf2ce87a9433d603b546040518082815260200191505060405180910390a15b603e5491505090565b60026004541415610b66576040517f08c379a000000000000000000000000000000000000000000000000000000000815260040180806020018281038252601f8152602001807f5265656e7472616e637947756172643a207265656e7472616e742063616c6c0081525060200191505060405180910390fd5b600260048190555033610b776119c2565b604181905550610b85611526565b604081905550600073ffffffffffffffffffffffffffffffffffffffff168173ffffffffffffffffffffffffffffffffffffffff1614610c5257610bc881610838565b604760008373ffffffffffffffffffffffffffffffffffffffff1673ffffffffffffffffffffffffffffffffffffffff16815260200190815260200160002081905550604154604660008373ffffffffffffffffffffffffffffffffffffffff1673ffffffffffffffffffffffffffffffffffffffff168152602001908152602001600020819055505b603e544210610d0357610c846064610c766032603b5461211790919063ffffffff16565b61219d90919063ffffffff16565b603b81905550610ca1603954603b5461219d90919063ffffffff16565b603f8190555042604081905550610cc36039544261222690919063ffffffff16565b603e819055507fde88a922e0d3b88b24e9623efeb464919c6bf9f66857a65e2bfcf2ce87a9433d603b546040518082815260200191505060405180910390a15b60008211610d79576040517f08c379a00000000000000000000000000000000000000000000000000000000081526004018080602001828103825260118152602001807f43616e6e6f74207769746864726177203000000000000000000000000000000081525060200191505060405180910390fd5b610d82826122ae565b3373ffffffffffffffffffffffffffffffffffffffff167f7084f5476618d8e60b11ef0d7d3f06914655adb8793e28ff7f018d4c76d505d5836040518082815260200191505060405180910390a250600160048190555050565b60026004541415610e55576040517f08c379a000000000000000000000000000000000000000000000000000000000815260040180806020018281038252601f8152602001807f5265656e7472616e637947756172643a207265656e7472616e742063616c6c0081525060200191505060405180910390fd5b600260048190555033610e666119c2565b604181905550610e74611526565b604081905550600073ffffffffffffffffffffffffffffffffffffffff168173ffffffffffffffffffffffffffffffffffffffff1614610f4157610eb781610838565b604760008373ffffffffffffffffffffffffffffffffffffffff1673ffffffffffffffffffffffffffffffffffffffff16815260200190815260200160002081905550604154604660008373ffffffffffffffffffffffffffffffffffffffff1673ffffffffffffffffffffffffffffffffffffffff168152602001908152602001600020819055505b603e544210610ff257610f736064610f656032603b5461211790919063ffffffff16565b61219d90919063ffffffff16565b603b81905550610f90603954603b5461219d90919063ffffffff16565b603f8190555042604081905550610fb26039544261222690919063ffffffff16565b603e819055507fde88a922e0d3b88b24e9623efeb464919c6bf9f66857a65e2bfcf2ce87a9433d603b546040518082815260200191505060405180910390a15b603a60009054906101000a900460ff16611074576040517f08c379a00000000000000000000000000000000000000000000000000000000081526004018080602001828103825260188152602001807f5465616d206861736e2774207374617274656420706f6f6c000000000000000081525060200191505060405180910390fd5b600061107f33610838565b905060008111156111d4576000604760003373ffffffffffffffffffffffffffffffffffffffff1673ffffffffffffffffffffffffffffffffffffffff1681526020019081526020016000208190555061111c3382603860009054906101000a900473ffffffffffffffffffffffffffffffffffffffff1673ffffffffffffffffffffffffffffffffffffffff166123ae9092919063ffffffff16565b3373ffffffffffffffffffffffffffffffffffffffff167fe2403640ba68fed3a2f88b7557551d1993f84b99bb10ff833f0cf8db0c5e0486826040518082815260200191505060405180910390a261117f8160425461222690919063ffffffff16565b6042819055503373ffffffffffffffffffffffffffffffffffffffff167fe2403640ba68fed3a2f88b7557551d1993f84b99bb10ff833f0cf8db0c5e0486826040518082815260200191505060405180910390a25b50506001600481905550565b604460009054906101000a900473ffffffffffffffffffffffffffffffffffffffff1681565b603d5481565b604560009054906101000a900473ffffffffffffffffffffffffffffffffffffffff1681565b6000600360008373ffffffffffffffffffffffffffffffffffffffff1673ffffffffffffffffffffffffffffffffffffffff168152602001908152602001600020549050919050565b611283612466565b73ffffffffffffffffffffffffffffffffffffffff166112a1611551565b73ffffffffffffffffffffffffffffffffffffffff161461132a576040517f08c379a00000000000000000000000000000000000000000000000000000000081526004018080602001828103825260208152602001807f4f776e61626c653a2063616c6c6572206973206e6f7420746865206f776e657281525060200191505060405180910390fd5b600073ffffffffffffffffffffffffffffffffffffffff166000809054906101000a900473ffffffffffffffffffffffffffffffffffffffff1673ffffffffffffffffffffffffffffffffffffffff167f8be0079c531659141344cd1fd0a4f28419497f9722a3daafe3b4186f6b6457e060405160405180910390a360008060006101000a81548173ffffffffffffffffffffffffffffffffffffffff021916908373ffffffffffffffffffffffffffffffffffffffff160217905550565b603c5481565b603f5481565b61140f603954600802603c5461222690919063ffffffff16565b421015611484576040517f08c379a00000000000000000000000000000000000000000000000000000000081526004018080602001828103825260148152602001807f4d696e696e6720686173206e6f7420656e64656400000000000000000000000081525060200191505060405180910390fd5b600061149d604254603d5461209490919063ffffffff16565b90506114ec3382603860009054906101000a900473ffffffffffffffffffffffffffffffffffffffff1673ffffffffffffffffffffffffffffffffffffffff166123ae9092919063ffffffff16565b7f32e95f921f72e9e736ccad1cc1c0ef6e3c3c08204eb74e9ee4ae8f98e195e3f0816040518082815260200191505060405180910390a150565b600061153442603e5461246e565b905090565b60466020528060005260406000206000915090505481565b60008060009054906101000a900473ffffffffffffffffffffffffffffffffffffffff16905090565b603b5481565b600160009054906101000a900473ffffffffffffffffffffffffffffffffffffffff1681565b6002600454141561161f576040517f08c379a000000000000000000000000000000000000000000000000000000000815260040180806020018281038252601f8152602001807f5265656e7472616e637947756172643a207265656e7472616e742063616c6c0081525060200191505060405180910390fd5b6002600481905550336116306119c2565b60418190555061163e611526565b604081905550600073ffffffffffffffffffffffffffffffffffffffff168173ffffffffffffffffffffffffffffffffffffffff161461170b5761168181610838565b604760008373ffffffffffffffffffffffffffffffffffffffff1673ffffffffffffffffffffffffffffffffffffffff16815260200190815260200160002081905550604154604660008373ffffffffffffffffffffffffffffffffffffffff1673ffffffffffffffffffffffffffffffffffffffff168152602001908152602001600020819055505b603e5442106117bc5761173d606461172f6032603b5461211790919063ffffffff16565b61219d90919063ffffffff16565b603b8190555061175a603954603b5461219d90919063ffffffff16565b603f819055504260408190555061177c6039544261222690919063ffffffff16565b603e819055507fde88a922e0d3b88b24e9623efeb464919c6bf9f66857a65e2bfcf2ce87a9433d603b546040518082815260200191505060405180910390a15b603a60009054906101000a900460ff1661183e576040517f08c379a00000000000000000000000000000000000000000000000000000000081526004018080602001828103825260188152602001807f5465616d206861736e2774207374617274656420706f6f6c000000000000000081525060200191505060405180910390fd5b61185d3373ffffffffffffffffffffffffffffffffffffffff16612487565b156118d0576040517f08c379a000000000000000000000000000000000000000000000000000000000815260040180806020018281038252601d8152602001807f43616c6c6572206d757374206e6f74206265206120636f6e747261637400000081525060200191505060405180910390fd5b60008211611946576040517f08c379a000000000000000000000000000000000000000000000000000000000815260040180806020018281038252600e8152602001807f43616e6e6f74207374616b65203000000000000000000000000000000000000081525060200191505060405180910390fd5b61194f8261249a565b3373ffffffffffffffffffffffffffffffffffffffff167f9e71bc8eea02a63969f509818f2dafb9254532904319f9dbda79b67bd34a5f3d836040518082815260200191505060405180910390a250600160048190555050565b603a60009054906101000a900460ff1681565b60405481565b6000806119cd610943565b14156119dd576041549050611a57565b611a54611a436119eb610943565b611a35670de0b6b3a7640000611a27603f54611a19604054611a0b611526565b61209490919063ffffffff16565b61211790919063ffffffff16565b61211790919063ffffffff16565b61219d90919063ffffffff16565b60415461222690919063ffffffff16565b90505b90565b60415481565b60425481565b611a77611a7233611232565b610aed565b611a7f610ddc565b565b603e5481565b600560019054906101000a900460ff1680611aa65750611aa561259c565b5b80611abe5750600560009054906101000a900460ff16155b611b13576040517f08c379a000000000000000000000000000000000000000000000000000000000815260040180806020018281038252602e815260200180612e12602e913960400191505060405180910390fd5b6000600560019054906101000a900460ff161590508015611b65576001600560016101000a81548160ff0219169083151502179055506001600560006101000a81548160ff0219169083151502179055505b8215611b8257611b7d611b7886866125b3565b612793565b611b8c565b611b8b84612793565b5b84603860006101000a81548173ffffffffffffffffffffffffffffffffffffffff021916908373ffffffffffffffffffffffffffffffffffffffff160217905550603860009054906101000a900473ffffffffffffffffffffffffffffffffffffffff1673ffffffffffffffffffffffffffffffffffffffff166370a08231306040518263ffffffff1660e01b8152600401808273ffffffffffffffffffffffffffffffffffffffff1673ffffffffffffffffffffffffffffffffffffffff16815260200191505060206040518083038186803b158015611c6c57600080fd5b505afa158015611c80573d6000803e3d6000fd5b505050506040513d6020811015611c9657600080fd5b8101908080519060200190929190505050603d819055508160398190555083604460006101000a81548173ffffffffffffffffffffffffffffffffffffffff021916908373ffffffffffffffffffffffffffffffffffffffff16021790555084604560006101000a81548173ffffffffffffffffffffffffffffffffffffffff021916908373ffffffffffffffffffffffffffffffffffffffff1602179055508015611d58576000600560016101000a81548160ff0219169083151502179055505b5050505050565b611d67612466565b73ffffffffffffffffffffffffffffffffffffffff16611d85611551565b73ffffffffffffffffffffffffffffffffffffffff1614611e0e576040517f08c379a00000000000000000000000000000000000000000000000000000000081526004018080602001828103825260208152602001807f4f776e61626c653a2063616c6c6572206973206e6f7420746865206f776e657281525060200191505060405180910390fd5b600073ffffffffffffffffffffffffffffffffffffffff168173ffffffffffffffffffffffffffffffffffffffff161415611e94576040517f08c379a0000000000000000000000000000000000000000000000000000000008152600401808060200182810382526026815260200180612da56026913960400191505060405180910390fd5b8073ffffffffffffffffffffffffffffffffffffffff166000809054906101000a900473ffffffffffffffffffffffffffffffffffffffff1673ffffffffffffffffffffffffffffffffffffffff167f8be0079c531659141344cd1fd0a4f28419497f9722a3daafe3b4186f6b6457e060405160405180910390a3806000806101000a81548173ffffffffffffffffffffffffffffffffffffffff021916908373ffffffffffffffffffffffffffffffffffffffff16021790555050565b600030905090565b603860009054906101000a900473ffffffffffffffffffffffffffffffffffffffff1681565b603a60009054906101000a900460ff1615612003576040517f08c379a000000000000000000000000000000000000000000000000000000000815260040180806020018281038252601d8152602001807f506f6f6c2063616e206f6e6c792062652073746172746564206f6e636500000081525060200191505060405180910390fd5b6001603a60006101000a81548160ff02191690831515021790555061204f61204a606461203c6032603d5461211790919063ffffffff16565b61219d90919063ffffffff16565b6127d7565b60014201603c819055507f510ad7fdc6893c3992445eb80eeade3af54768c0d8dc2cc8fc57b1c9afa1491d603c546040518082815260200191505060405180910390a1565b60008282111561210c576040517f08c379a000000000000000000000000000000000000000000000000000000000815260040180806020018281038252601e8152602001807f536166654d6174683a207375627472616374696f6e206f766572666c6f77000081525060200191505060405180910390fd5b818303905092915050565b60008083141561212a5760009050612197565b600082840290508284828161213b57fe5b0414612192576040517f08c379a0000000000000000000000000000000000000000000000000000000008152600401808060200182810382526021815260200180612df16021913960400191505060405180910390fd5b809150505b92915050565b6000808211612214576040517f08c379a000000000000000000000000000000000000000000000000000000000815260040180806020018281038252601a8152602001807f536166654d6174683a206469766973696f6e206279207a65726f00000000000081525060200191505060405180910390fd5b81838161221d57fe5b04905092915050565b6000808284019050838110156122a4576040517f08c379a000000000000000000000000000000000000000000000000000000000815260040180806020018281038252601b8152602001807f536166654d6174683a206164646974696f6e206f766572666c6f77000000000081525060200191505060405180910390fd5b8091505092915050565b6122c38160025461209490919063ffffffff16565b60028190555061231b81600360003373ffffffffffffffffffffffffffffffffffffffff1673ffffffffffffffffffffffffffffffffffffffff1681526020019081526020016000205461209490919063ffffffff16565b600360003373ffffffffffffffffffffffffffffffffffffffff1673ffffffffffffffffffffffffffffffffffffffff168152602001908152602001600020819055506123ab3382600160009054906101000a900473ffffffffffffffffffffffffffffffffffffffff1673ffffffffffffffffffffffffffffffffffffffff166123ae9092919063ffffffff16565b50565b6124618363a9059cbb60e01b8484604051602401808373ffffffffffffffffffffffffffffffffffffffff1673ffffffffffffffffffffffffffffffffffffffff16815260200182815260200192505050604051602081830303815290604052907bffffffffffffffffffffffffffffffffffffffffffffffffffffffff19166020820180517bffffffffffffffffffffffffffffffffffffffffffffffffffffffff838183161783525050505061293b565b505050565b600033905090565b600081831061247d578161247f565b825b905092915050565b600080823b905060008111915050919050565b6124af8160025461222690919063ffffffff16565b60028190555061250781600360003373ffffffffffffffffffffffffffffffffffffffff1673ffffffffffffffffffffffffffffffffffffffff1681526020019081526020016000205461222690919063ffffffff16565b600360003373ffffffffffffffffffffffffffffffffffffffff1673ffffffffffffffffffffffffffffffffffffffff16815260200190815260200160002081905550612599333083600160009054906101000a900473ffffffffffffffffffffffffffffffffffffffff1673ffffffffffffffffffffffffffffffffffffffff16612a2a909392919063ffffffff16565b50565b6000803090506000813b9050600081149250505090565b6000808273ffffffffffffffffffffffffffffffffffffffff168473ffffffffffffffffffffffffffffffffffffffff16106125ef57826125f1565b835b905060008373ffffffffffffffffffffffffffffffffffffffff168573ffffffffffffffffffffffffffffffffffffffff161061262e5784612630565b835b90506000735c69bee701ef814a2b6a3edd4b1652cb9cc5aa6f8383604051602001808373ffffffffffffffffffffffffffffffffffffffff1673ffffffffffffffffffffffffffffffffffffffff1660601b81526014018273ffffffffffffffffffffffffffffffffffffffff1673ffffffffffffffffffffffffffffffffffffffff1660601b8152601401925050506040516020818303038152906040528051906020012060405160200180807fff000000000000000000000000000000000000000000000000000000000000008152506001018373ffffffffffffffffffffffffffffffffffffffff1673ffffffffffffffffffffffffffffffffffffffff1660601b8152601401828152602001807f96e8ac4277198ff8b6f785478aa9a39f403cb768dd02cbee326c3e7da348845f815250602001925050506040516020818303038152906040528051906020012060001c905080935050505092915050565b80600160006101000a81548173ffffffffffffffffffffffffffffffffffffffff021916908373ffffffffffffffffffffffffffffffffffffffff16021790555050565b60006127e16119c2565b6041819055506127ef611526565b604081905550600073ffffffffffffffffffffffffffffffffffffffff168173ffffffffffffffffffffffffffffffffffffffff16146128bc5761283281610838565b604760008373ffffffffffffffffffffffffffffffffffffffff1673ffffffffffffffffffffffffffffffffffffffff16815260200190815260200160002081905550604154604660008373ffffffffffffffffffffffffffffffffffffffff1673ffffffffffffffffffffffffffffffffffffffff168152602001908152602001600020819055505b81603b819055506128d86039548361219d90919063ffffffff16565b603f81905550426040819055506128fa6039544261222690919063ffffffff16565b603e819055507fde88a922e0d3b88b24e9623efeb464919c6bf9f66857a65e2bfcf2ce87a9433d826040518082815260200191505060405180910390a15050565b606061299d826040518060400160405280602081526020017f5361666545524332303a206c6f772d6c6576656c2063616c6c206661696c65648152508573ffffffffffffffffffffffffffffffffffffffff16612b179092919063ffffffff16565b9050600081511115612a25578080602001905160208110156129be57600080fd5b8101908080519060200190929190505050612a24576040517f08c379a000000000000000000000000000000000000000000000000000000000815260040180806020018281038252602a815260200180612e40602a913960400191505060405180910390fd5b5b505050565b612b11846323b872dd60e01b858585604051602401808473ffffffffffffffffffffffffffffffffffffffff1673ffffffffffffffffffffffffffffffffffffffff1681526020018373ffffffffffffffffffffffffffffffffffffffff1673ffffffffffffffffffffffffffffffffffffffff1681526020018281526020019350505050604051602081830303815290604052907bffffffffffffffffffffffffffffffffffffffffffffffffffffffff19166020820180517bffffffffffffffffffffffffffffffffffffffffffffffffffffffff838183161783525050505061293b565b50505050565b6060612b268484600085612b2f565b90509392505050565b606082471015612b8a576040517f08c379a0000000000000000000000000000000000000000000000000000000008152600401808060200182810382526026815260200180612dcb6026913960400191505060405180910390fd5b612b9385612487565b612c05576040517f08c379a000000000000000000000000000000000000000000000000000000000815260040180806020018281038252601d8152602001807f416464726573733a2063616c6c20746f206e6f6e2d636f6e747261637400000081525060200191505060405180910390fd5b600060608673ffffffffffffffffffffffffffffffffffffffff1685876040518082805190602001908083835b60208310612c555780518252602082019150602081019050602083039250612c32565b6001836020036101000a03801982511681845116808217855250505050505090500191505060006040518083038185875af1925050503d8060008114612cb7576040519150601f19603f3d011682016040523d82523d6000602084013e612cbc565b606091505b5091509150612ccc828286612cd8565b92505050949350505050565b60608315612ce857829050612d9d565b600083511115612cfb5782518084602001fd5b816040517f08c379a00000000000000000000000000000000000000000000000000000000081526004018080602001828103825283818151815260200191508051906020019080838360005b83811015612d62578082015181840152602081019050612d47565b50505050905090810190601f168015612d8f5780820380516001836020036101000a031916815260200191505b509250505060405180910390fd5b939250505056fe4f776e61626c653a206e6577206f776e657220697320746865207a65726f2061646472657373416464726573733a20696e73756666696369656e742062616c616e636520666f722063616c6c536166654d6174683a206d756c7469706c69636174696f6e206f766572666c6f77436f6e747261637420696e7374616e63652068617320616c7265616479206265656e20696e697469616c697a65645361666545524332303a204552433230206f7065726174696f6e20646964206e6f742073756363656564a2646970667358221220b1e3d9d286404774ae80a73e9042d809cd5a14c45f36dfa6d35877a7e135c71c64736f6c63430006060033",
  "immutableReferences": {},
  "source": "// SPDX-License-Identifier: MIT\r\npragma solidity >=0.6.6;\r\n\r\nimport \"@openzeppelin/contracts/math/SafeMath.sol\";\r\nimport \"@openzeppelin/contracts/token/ERC20/IERC20.sol\";\r\nimport \"@openzeppelin/contracts/token/ERC20/SafeERC20.sol\";\r\nimport \"@openzeppelin/upgrades/contracts/Initializable.sol\";\r\nimport \"@openzeppelin/contracts/math/Math.sol\";\r\nimport \"@openzeppelin/contracts/utils/ReentrancyGuard.sol\";\r\nimport \"@openzeppelin/contracts/access/Ownable.sol\";\r\n\r\ncontract LPTokenWrapper {\r\n    using SafeMath for uint256;\r\n    using SafeERC20 for IERC20;\r\n\r\n    IERC20 public y;\r\n\r\n    function setStakeToken(address _y) internal {\r\n        y = IERC20(_y);\r\n    }\r\n\r\n    uint256 private _totalSupply;\r\n    mapping(address => uint256) private _balances;\r\n\r\n    function totalSupply() public view returns (uint256) {\r\n        return _totalSupply;\r\n    }\r\n\r\n    function balanceOf(address account) public view returns (uint256) {\r\n        return _balances[account];\r\n    }\r\n\r\n    function stake(uint256 amount) public virtual {\r\n        _totalSupply = _totalSupply.add(amount);\r\n        _balances[msg.sender] = _balances[msg.sender].add(amount);\r\n        y.safeTransferFrom(msg.sender, address(this), amount);\r\n    }\r\n\r\n    function withdraw(uint256 amount) public virtual {\r\n        _totalSupply = _totalSupply.sub(amount);\r\n        _balances[msg.sender] = _balances[msg.sender].sub(amount);\r\n        y.safeTransfer(msg.sender, amount);\r\n    }\r\n}\r\n\r\ncontract StakeU is Ownable, LPTokenWrapper, ReentrancyGuard, Initializable {\r\n    using Address for address;\r\n    \r\n    IERC20 public rewardToken;\r\n    uint256 public duration;\r\n    bool public poolEnabled;\r\n    \r\n    uint256 public initReward;\r\n    uint256 public startTime;\r\n    uint256 public maxReward;\r\n    uint256 public periodFinish;\r\n    uint256 public rewardRate;\r\n    uint256 public lastUpdateTime;\r\n    uint256 public rewardPerTokenStored;\r\n    uint256 public rewardDistributed;\r\n    uint256 public maxUint = uint256(-1);\r\n    address public stakeToken;\r\n    address public tokenReward;\r\n    \r\n    address constant uniFactory = 0x5C69bEe701ef814a2B6a3EDD4B1652CB9cc5aA6f;\r\n\r\n    mapping(address => uint256) public userRewardPerTokenPaid;\r\n    mapping(address => uint256) public rewards;\r\n    \r\n    event RewardAdded(uint256 reward);\r\n    event Staked(address indexed user, uint256 amount);\r\n    event Withdrawn(address indexed user, uint256 amount);\r\n    event RewardPaid(address indexed user, uint256 reward);\r\n    event PoolStarted(uint256 startedAt);\r\n    event Recovered(uint256 tokenAmount);\r\n    \r\n    modifier checkHalve() {\r\n        if (block.timestamp >= periodFinish) {\r\n            initReward = initReward.mul(50).div(100);\r\n\r\n            rewardRate = initReward.div(duration);\r\n            lastUpdateTime = block.timestamp;\r\n            periodFinish = block.timestamp.add(duration);\r\n            emit RewardAdded(initReward);\r\n        }\r\n        _;\r\n    }\r\n\r\n    modifier checkStart() {\r\n        require(poolEnabled, \"Team hasn't started pool\");\r\n        _;\r\n    }\r\n\r\n    modifier updateReward(address account) {\r\n        rewardPerTokenStored = rewardPerToken();\r\n        lastUpdateTime = lastTimeRewardApplicable();\r\n        if (account != address(0)) {\r\n            rewards[account] = earned(account);\r\n            userRewardPerTokenPaid[account] = rewardPerTokenStored;\r\n        }\r\n        _;\r\n    }\r\n\r\n    // https://uniswap.org/docs/v2/smart-contract-integration/getting-pair-addresses/\r\n    function genUniAddr(address left, address right)\r\n        internal\r\n        pure\r\n        returns (address)\r\n    {\r\n        address first = left < right ? left : right;\r\n        address second = left < right ? right : left;\r\n        address pair = address(\r\n            uint256(\r\n                keccak256(\r\n                    abi.encodePacked(\r\n                        hex\"ff\",\r\n                        uniFactory,\r\n                        keccak256(abi.encodePacked(first, second)),\r\n                        hex\"96e8ac4277198ff8b6f785478aa9a39f403cb768dd02cbee326c3e7da348845f\"\r\n                    )\r\n                )\r\n            )\r\n        );\r\n        return pair;\r\n    }\r\n    \r\n    function initialize(\r\n        address rewardToken_,\r\n        address pairToken_,\r\n        bool isUniPair,\r\n        uint256 duration_ //should be made ownable\r\n    ) public initializer {\r\n        if (isUniPair) {\r\n            setStakeToken(genUniAddr(rewardToken_, pairToken_));\r\n        } else {\r\n            setStakeToken(pairToken_);\r\n        }\r\n        rewardToken = IERC20(rewardToken_);\r\n\r\n        maxReward = rewardToken.balanceOf(address(this));\r\n        duration = duration_;\r\n        stakeToken = pairToken_;\r\n        tokenReward = rewardToken_;\r\n    }\r\n    \r\n    function startPool() public { //should be made ownable\r\n        require(!poolEnabled, \"Pool can only be started once\");\r\n\r\n        poolEnabled = true;\r\n        notifyRewardAmount(maxReward.mul(50).div(100));\r\n        startTime = block.timestamp + 1;\r\n        emit PoolStarted(startTime);\r\n    }\r\n    \r\n    function contractAddress() public view returns(address) {\r\n        return address(this);\r\n    }\r\n    \r\n    \r\n    function lastTimeRewardApplicable() public view returns (uint256) {\r\n        return Math.min(block.timestamp, periodFinish);\r\n    }\r\n    \r\n    function rewardPerToken() public view returns (uint256) {\r\n        if (totalSupply() == 0) {\r\n            return rewardPerTokenStored;\r\n        }\r\n        return\r\n            rewardPerTokenStored.add(\r\n                lastTimeRewardApplicable()\r\n                    .sub(lastUpdateTime)\r\n                    .mul(rewardRate)\r\n                    .mul(10**18)\r\n                    .div(totalSupply())\r\n            );\r\n    }\r\n    \r\n    function earned(address account) public view returns (uint256) {\r\n        return\r\n            balanceOf(account)\r\n                .mul(rewardPerToken().sub(userRewardPerTokenPaid[account]))\r\n                .div(10**18)\r\n                .add(rewards[account]);\r\n    }\r\n    \r\n    // stake visibility is public as overriding LPTokenWrapper's stake() function\r\n    function stake(uint256 amount)\r\n        public\r\n        override\r\n        nonReentrant\r\n        updateReward(msg.sender)\r\n        checkHalve\r\n        checkStart\r\n    {\r\n        require(\r\n            !address(msg.sender).isContract(),\r\n            \"Caller must not be a contract\"\r\n        );\r\n        require(amount > 0, \"Cannot stake 0\");\r\n        super.stake(amount);\r\n        emit Staked(msg.sender, amount);\r\n    }\r\n\r\n    function withdraw(uint256 amount)\r\n        public\r\n        override\r\n        nonReentrant\r\n        updateReward(msg.sender)\r\n        checkHalve\r\n    {\r\n        require(amount > 0, \"Cannot withdraw 0\");\r\n        super.withdraw(amount);\r\n        emit Withdrawn(msg.sender, amount);\r\n    }\r\n\r\n    function exit() external {\r\n        withdraw(balanceOf(msg.sender));\r\n        getReward();\r\n    }\r\n\r\n    function getReward()\r\n        public\r\n        nonReentrant\r\n        updateReward(msg.sender)\r\n        checkHalve\r\n        checkStart\r\n    {\r\n        uint256 reward = earned(msg.sender);\r\n        if (reward > 0) {\r\n            rewards[msg.sender] = 0;\r\n            rewardToken.safeTransfer(msg.sender, reward);\r\n            emit RewardPaid(msg.sender, reward);\r\n            rewardDistributed = rewardDistributed.add(reward);\r\n            emit RewardPaid(msg.sender, reward);\r\n        }\r\n    }\r\n\r\n    function notifyRewardAmount(uint256 reward)\r\n        internal\r\n        updateReward(address(0))\r\n    {\r\n        initReward = reward;\r\n        rewardRate = reward.div(duration);\r\n        lastUpdateTime = block.timestamp;\r\n        periodFinish = block.timestamp.add(duration);\r\n        emit RewardAdded(reward);\r\n    }\r\n    \r\n    function updatePeriodFinish() public updateReward(address(0)) checkHalve returns(uint256) {\r\n        return periodFinish;\r\n    }\r\n    \r\n    function recoverERC20() public {\r\n        require(block.timestamp >= (startTime.add(8 * duration)), \"Mining has not ended\");\r\n        uint256 tokenAmount = maxReward.sub(rewardDistributed);\r\n        rewardToken.safeTransfer(msg.sender, tokenAmount);\r\n        emit Recovered(tokenAmount);\r\n    }\r\n\r\n}",
  "sourcePath": "C:/Users/DIVYA JAYACHANDRAN/Desktop/solidity practice/projects/stake/src/contracts/StakeU.sol",
  "compiler": {
    "name": "solc",
    "version": "0.6.6+commit.6c089d02.Emscripten.clang"
  },
  "schemaVersion": "3.3.4",
  "updatedAt": "2021-04-08T17:09:16.083Z",
  "devdoc": {
    "methods": {
      "owner()": {
        "details": "Returns the address of the current owner."
      },
      "renounceOwnership()": {
        "details": "Leaves the contract without owner. It will not be possible to call `onlyOwner` functions anymore. Can only be called by the current owner.     * NOTE: Renouncing ownership will leave the contract without an owner, thereby removing any functionality that is only available to the owner."
      },
      "transferOwnership(address)": {
        "details": "Transfers ownership of the contract to a new account (`newOwner`). Can only be called by the current owner."
      }
    }
  },
  "userdoc": {
    "methods": {}
  }
}